:1000000002308A003B2A0000D732EC31EF36651708
:100010002E172E170000C8204900C7376F32A026C0
:100020006F39EE34EE330001C8224C280001C73787
:100030006F322027E933683A0001C83AEE33F23CC8
:100040000001D730F4327200CE370001C437A0244B
:10005000740043346137E732203A6F10733A6131EC
:10006000EC32000031308400831300080319452866
:100070000230F800F701F70B3B28F80B3A289730CD
:10008000F700F70B4128800B3828080037184A285A
:1000900087114B288715A01120088316870083122B
:1000A000B71854280712552807162012200883165F
:1000B0008700831237195E2887125F288716A012DF
:1000C0002008831687008312B71968280713692848
:1000D00007172013200883168700000083120715D6
:1000E00020112008831687007528762883120711AF
:1000F000201120088316870083120800B801A0157C
:100100002008831687000030831287190130B80455
:10011000201620088316870000308312071A01304A
:10012000F7000310F70D7708B804A016200883160F
:10013000870000308312871A0130F700F70DF70DA2
:10014000FC30F7057708B8042017200883168700CD
:1001500000308312071B0130F700F70DF70DF70D84
:10016000F830F7057708B8043808F80008002011BF
:10017000200883168700831220102008831687002A
:100180008312A01020088316870083120710201006
:10019000200883168700871507168716071783120E
:1001A0008714A0102008831687000000831207150B
:1001B0002011200883168700000083127E20780813
:1001C000B700071120112008831687000000831252
:1001D00007152011200883168700EE2883127E2041
:1001E0007808B600071120112008831687008312B3
:1001F000A01120088316870083122012200883167E
:1002000087008312A0122008831687008312201310
:100210002008831687008312370EF700F030F705A9
:1002200077083604F8007808B600B61F1929831637
:10023000CB28B408031D1E2907101F2907142010FE
:10024000200883168700000083128710A010200862
:1002500083168700000083120711201120088316DF
:1002600087008312350EB6000F30B6053608B7008A
:10027000462035080F39B600B70046200800283060
:10028000AD000C30AE000130AF000630B0000711F9
:1002900020112008831687008312071020102008E1
:1002A0008316870083128710A0102008831687000A
:1002B0008312A011200883168700831220122008C1
:1002C000831687008312A0122008831687008312EA
:1002D000201320088316870083122011200883161C
:1002E0008700831220102008831687008312A01035
:1002F0002008831687000F308312B10032200130AE
:10030000AC002C08033C031C8D290330B7004620A9
:100310000530B1003220AC0A81290230B7004620F6
:100320000530B1003220AC012C08033C031CA42989
:100330002D302C07840083130008B100B40131086C
:10034000B500B720AC0A94298A110A124F2A310B42
:10035000AA29AD294030B200AE29B20101303002E5
:10036000B20732088038B300B4013308B500B720B3
:1003700008002F08073A0319C7290B3A0319CC299B
:10038000063A0319D429023A0319DA29DF29013080
:10039000B000B100A721E429B4010130B500B720B5
:1003A0000230B1003220E4290130B0000230B10047
:1003B000A721E429B4011030B500B720E4290130A9
:1003C000B4002F08B500B72008000B08AC008B1351
:1003D000831603178C170C140000000083120313FC
:1003E000AC1B8B1703170C087F390319392A031329
:1003F000AC0003170D080313AD0003170F08031318
:10040000AE002C08AF00B9212D0803178D0003138F
:100410002E0803178F0003130B08AF008B138316EE
:1004200003178C170C140000000083120313AF1B7A
:100430008B1703170C0D0E0D7F390319392A03137F
:10044000AC0003170D080313AD0003170F080313C7
:10045000AE002C08AF00B9212D0803178D0003133F
:100460002E0803178F008D0A03198F0A0313E5293D
:1004700003170313080003081F398300FF30A0008F
:1004800083161F149F141F159F1107309C008313A0
:100490008312AB0100308316860083123F29831636
:1004A0001F1383121F139F1783169F1783121F1486
:1004B00083161F109F141F119F1164308312B10007
:1004C00032200330B0000130B100A72104300317FF
:1004D0008D0000308F000313E5210830AC00FA30A6
:1004E000B1003220AC0B6F2A0C30AF00B92183165B
:1004F0000811831208150030F8001F08C739780466
:100500009F001F151F19822A83161E088312A1003F
:100510001E08A2006430B10032200830F8001F0825
:10052000C73978049F001F151F19942A83161E08C7
:100530008312A3001E08A4006430B10032201030E2
:10054000F8001F08C73978049F001F151F19A62A35
:1005500083161E088312A5001E08A6006430B10091
:1005600032201830F8001F08C73978049F001F1583
:100570001F19B82A83161E088312A7001E08A80098
:100580006430B10032202030F8001F08C7397804E9
:100590009F001F151F19CA2A83161E088312A9005F
:1005A0001E08AA00061483160610831286148316EA
:1005B000861083120615831606118312861583167C
:1005C0008611831206168316061283128616831668
:1005D0008612831206178316061383128617831654
:1005E00086138312AB08031DAB2D2208013C0318B0
:1005F0004A2BFF3A031D002B2108583C03184A2BB5
:100600002408023C031C4A2B031D0A2B2308573CD9
:10061000031C4A2B2608023C031C4A2B031D142BE7
:100620002508573C031C4A2B2808023C031C4A2B74
:10063000031D1E2B2708573C031C4A2B2A08023C8B
:10064000031C4A2B031D282B2908573C031C4A2B4B
:10065000AB08031D4A2B0B3003178D0000308F00B1
:100660000313E52106108316061008308312AC0030
:10067000FA30B1003220AC0B382B0614831606106A
:100680000C308312AF00B9218316081183120811B0
:100690000130AB002208023C031CA02B031D542B8D
:1006A0002108573C031CA02B2408023C031CA02B50
:1006B000031D5E2B2308573C031CA02B2608013C7E
:1006C0000318A02BFF3A031D692B2508583C03187B
:1006D000A02B2808013C0318A02BFF3A031D742B04
:1006E0002708583C0318A02B2A08023C031CA02B07
:1006F000031D7E2B2908573C031CA02BAB08031DB0
:10070000A02B0D3003178D0000308F000313E5215F
:1007100086108316861008308312AC00FA30B100C0
:100720003220AC0B8E2B8614831686100C3083126D
:10073000AF00B92183160811831208110130AB00F4
:100740002208023C031CF52B031DAA2B2108573C51
:10075000031CF52B2408023C031CF52B031DB42BB2
:100760002308573C031CF52B2608023C031CF52BE1
:10077000031DBE2B2508573C031CF52B2808013C04
:100780000318F52BFF3A031DC92B2708583C031803
:10079000F52B2A08023C031CF52B031DD32B29083B
:1007A000573C031CF52BAB08031DF52B1430031726
:1007B0008D0000308F000313E5210611831606110A
:1007C00008308312AC00FA30B1003220AC0BE32BBE
:1007D0000615831606110C308312AF00B92183165B
:1007E0000811831208110130AB002208023C031CDF
:1007F0004C2C031DFF2B2108573C031C4C2C2408B8
:10080000013C03184C2CFF3A031D0A2C2308583CCA
:1008100003184C2C2608013C03184C2CFF3A031DEE
:10082000152C2508583C03184C2C2808013C0318AB
:100830004C2CFF3A031D202C2708583C03184C2C45
:100840002A08023C031C4C2C031D2A2C2908573C67
:10085000031C4C2CAB08031D4C2C173003178D00C8
:1008600000308F000313E5218611831686110830AE
:100870008312AC00FA30B1003220AC0B3A2C861552
:10088000831686110C308312AF00B921831608112C
:10089000831208110130AB002208023C031CA22C79
:1008A000031D562C2108573C031CA22C2408023C93
:1008B000031CA22C031D602C2308573C031CA22CF4
:1008C0002608023C031CA22C031D6A2C2508573C59
:1008D000031CA22C2808013C0318A22CFF3A031D7C
:1008E000752C2708583C0318A22C2A08013C031831
:1008F000A22CFF3A031D802C2908583C0318A22C77
:10090000AB08031DA22C1D3003178D0000308F0093
:100910000313E52106128316061208308312AC0079
:10092000FA30B1003220AC0B902C0616831606125A
:100930000C308312AF00B9218316081183120811FD
:100940000130AB002208023C031CFA2C031DAC2C26
:100950002108573C031CFA2C2408013C0318FA2CEC
:10096000FF3A031DB72C2308583C0318FA2C26081D
:10097000013C0318FA2CFF3A031DC22C2508583CF1
:100980000318FA2C2808013C0318FA2CFF3A031D1F
:10099000CD2C2708583C0318FA2C2A08013C0318D0
:1009A000FA2CFF3A031DD82C2908583C0318FA2CBE
:1009B000AB08031DFA2C213003178D0000308F0087
:1009C0000313E52186128316861208308312AC00C9
:1009D000FA30B1003220AC0BE82C86168316861252
:1009E0000C308312AF00B92183160811831208114D
:1009F0000130AB002208023C031C512D031D042DC5
:100A00002108573C031C512D2408023C031C512D86
:100A1000031D0E2D2308573C031C512D2608013CB5
:100A20000318512DFF3A031D192D2508583C0318B2
:100A3000512D2808013C0318512DFF3A031D242D88
:100A40002708583C0318512D2A08013C0318512D42
:100A5000FF3A031D2F2D2908583C0318512DAB08D0
:100A6000031D512D243003178D0000308F00031318
:100A7000E52106138316061308308312AC00FA3002
:100A8000B1003220AC0B3F2D0617831606130C3035
:100A90008312AF00B92183160811831208110130A7
:100AA000AB002208013C0318AA2DFF3A031D5C2D60
:100AB0002108583C0318AA2D2408013C0318AA2D2C
:100AC000FF3A031D672D2308583C0318AA2D26085A
:100AD000013C0318AA2DFF3A031D722D2508583C2E
:100AE0000318AA2D2808013C0318AA2DFF3A031D5C
:100AF0007D2D2708583C0318AA2D2A08013C03180D
:100B0000AA2DFF3A031D882D2908583C0318AA2D49
:100B1000AB08031DAA2D263003178D0000308F006F
:100B20000313E52186138316861308308312AC0065
:100B3000FA30B1003220AC0B982D8617831686133D
:100B40000C308312AF00B9218316081183120811EB
:100B50000130AB002B2E2208023C031CE32D031DA9
:100B6000B52D2108573C031CE32D2408023C031C2F
:100B7000E32D031DBF2D2308573C031CE32D26083E
:100B8000023C031CE32D031DC92D2508573C031C03
:100B9000E32D2808023C031CE32D031DD32D270859
:100BA000573C031CE32D2A08023C031CE32D031DC4
:100BB000DD2D2908573C031CE32DAB0183160811DA
:100BC000831208152B2E2208013C0318EE2DFF3A44
:100BD000031D1A2E2108583C031C1A2E2408013C20
:100BE0000318F92DFF3A031D1A2E2308583C031C45
:100BF0001A2E2608013C0318042EFF3A031D1A2E54
:100C00002508583C031C1A2E2808013C03180F2EF7
:100C1000FF3A031D1A2E2708583C031C1A2E2A08D7
:100C2000013C03182B2EFF3A031D1A2E2908583CAD
:100C300003182B2E293003178D0000308F0003136B
:100C4000E5210830AC00FA30B1003220AC0B232E85
:0A0C50000C30AF00B9217B2A6300CD
:02400E00723FFF
:00000001FF
;PIC16F877A
;CRC=C47F  CREATED="03-May-19 09:57"
